{
  "_format": "hh-sol-artifact-1",
  "contractName": "Transactions",
  "sourceName": "contracts/Transactions.sol",
  "abi": [
    {
      "anonymous": false,
      "inputs": [
        {
          "indexed": false,
          "internalType": "address",
          "name": "from",
          "type": "address"
        },
        {
          "indexed": false,
          "internalType": "address",
          "name": "receiver",
          "type": "address"
        },
        {
          "indexed": false,
          "internalType": "uint256",
          "name": "amount",
          "type": "uint256"
        },
        {
          "indexed": false,
          "internalType": "string",
          "name": "message",
          "type": "string"
        },
        {
          "indexed": false,
          "internalType": "uint256",
          "name": "timestamp",
          "type": "uint256"
        }
      ],
      "name": "Transfer",
      "type": "event"
    },
    {
      "inputs": [
        {
          "internalType": "address payable",
          "name": "receiver",
          "type": "address"
        },
        {
          "internalType": "uint256",
          "name": "amount",
          "type": "uint256"
        },
        {
          "internalType": "string",
          "name": "message",
          "type": "string"
        }
      ],
      "name": "addToBlockchain",
      "outputs": [],
      "stateMutability": "nonpayable",
      "type": "function"
    },
    {
      "inputs": [],
      "name": "getAllTransactions",
      "outputs": [
        {
          "components": [
            {
              "internalType": "address",
              "name": "sender",
              "type": "address"
            },
            {
              "internalType": "address",
              "name": "receiver",
              "type": "address"
            },
            {
              "internalType": "uint256",
              "name": "amount",
              "type": "uint256"
            },
            {
              "internalType": "string",
              "name": "message",
              "type": "string"
            },
            {
              "internalType": "uint256",
              "name": "timestamp",
              "type": "uint256"
            }
          ],
          "internalType": "struct Transactions.TransferStruct[]",
          "name": "",
          "type": "tuple[]"
        }
      ],
      "stateMutability": "view",
      "type": "function"
    },
    {
      "inputs": [],
      "name": "getTransactionCount",
      "outputs": [
        {
          "internalType": "uint256",
          "name": "",
          "type": "uint256"
        }
      ],
      "stateMutability": "view",
      "type": "function"
    }
  ],
  "bytecode": "0x608060405234801561001057600080fd5b506109c3806100206000396000f3fe608060405234801561001057600080fd5b50600436106100415760003560e01c806327506f53146100465780632e7700f014610064578063eb12da4a14610082575b600080fd5b61004e61009e565b60405161005b91906106b6565b60405180910390f35b61006c61024f565b60405161007991906106d8565b60405180910390f35b61009c600480360381019061009791906104ea565b610258565b005b60606001805480602002602001604051908101604052809291908181526020016000905b8282101561024657838290600052602060002090600502016040518060a00160405290816000820160009054906101000a900473ffffffffffffffffffffffffffffffffffffffff1673ffffffffffffffffffffffffffffffffffffffff1673ffffffffffffffffffffffffffffffffffffffff1681526020016001820160009054906101000a900473ffffffffffffffffffffffffffffffffffffffff1673ffffffffffffffffffffffffffffffffffffffff1673ffffffffffffffffffffffffffffffffffffffff168152602001600282015481526020016003820180546101ab9061088f565b80601f01602080910402602001604051908101604052809291908181526020018280546101d79061088f565b80156102245780601f106101f957610100808354040283529160200191610224565b820191906000526020600020905b81548152906001019060200180831161020757829003601f168201915b50505050508152602001600482015481525050815260200190600101906100c2565b50505050905090565b60008054905090565b600160008082825461026a91906107a9565b9250508190555060016040518060a001604052803373ffffffffffffffffffffffffffffffffffffffff1681526020018573ffffffffffffffffffffffffffffffffffffffff16815260200184815260200183815260200142815250908060018154018082558091505060019003906000526020600020906005020160009091909190915060008201518160000160006101000a81548173ffffffffffffffffffffffffffffffffffffffff021916908373ffffffffffffffffffffffffffffffffffffffff16021790555060208201518160010160006101000a81548173ffffffffffffffffffffffffffffffffffffffff021916908373ffffffffffffffffffffffffffffffffffffffff1602179055506040820151816002015560608201518160030190805190602001906103a39291906103b5565b50608082015181600401555050505050565b8280546103c19061088f565b90600052602060002090601f0160209004810192826103e3576000855561042a565b82601f106103fc57805160ff191683800117855561042a565b8280016001018555821561042a579182015b8281111561042957825182559160200191906001019061040e565b5b509050610437919061043b565b5090565b5b8082111561045457600081600090555060010161043c565b5090565b600061046b61046684610724565b6106f3565b90508281526020810184848401111561048357600080fd5b61048e84828561084d565b509392505050565b6000813590506104a58161095f565b92915050565b600082601f8301126104bc57600080fd5b81356104cc848260208601610458565b91505092915050565b6000813590506104e481610976565b92915050565b6000806000606084860312156104ff57600080fd5b600061050d86828701610496565b935050602061051e868287016104d5565b925050604084013567ffffffffffffffff81111561053b57600080fd5b610547868287016104ab565b9150509250925092565b600061055d8383610622565b905092915050565b61056e816107ff565b82525050565b600061057f82610764565b6105898185610787565b93508360208202850161059b85610754565b8060005b858110156105d757848403895281516105b88582610551565b94506105c38361077a565b925060208a0199505060018101905061059f565b50829750879550505050505092915050565b60006105f48261076f565b6105fe8185610798565b935061060e81856020860161085c565b6106178161094e565b840191505092915050565b600060a08301600083015161063a6000860182610565565b50602083015161064d6020860182610565565b5060408301516106606040860182610698565b506060830151848203606086015261067882826105e9565b915050608083015161068d6080860182610698565b508091505092915050565b6106a181610843565b82525050565b6106b081610843565b82525050565b600060208201905081810360008301526106d08184610574565b905092915050565b60006020820190506106ed60008301846106a7565b92915050565b6000604051905081810181811067ffffffffffffffff8211171561071a5761071961091f565b5b8060405250919050565b600067ffffffffffffffff82111561073f5761073e61091f565b5b601f19601f8301169050602081019050919050565b6000819050602082019050919050565b600081519050919050565b600081519050919050565b6000602082019050919050565b600082825260208201905092915050565b600082825260208201905092915050565b60006107b482610843565b91506107bf83610843565b9250827fffffffffffffffffffffffffffffffffffffffffffffffffffffffffffffffff038211156107f4576107f36108c1565b5b828201905092915050565b600061080a82610823565b9050919050565b600061081c82610823565b9050919050565b600073ffffffffffffffffffffffffffffffffffffffff82169050919050565b6000819050919050565b82818337600083830152505050565b60005b8381101561087a57808201518184015260208101905061085f565b83811115610889576000848401525b50505050565b600060028204905060018216806108a757607f821691505b602082108114156108bb576108ba6108f0565b5b50919050565b7f4e487b7100000000000000000000000000000000000000000000000000000000600052601160045260246000fd5b7f4e487b7100000000000000000000000000000000000000000000000000000000600052602260045260246000fd5b7f4e487b7100000000000000000000000000000000000000000000000000000000600052604160045260246000fd5b6000601f19601f8301169050919050565b61096881610811565b811461097357600080fd5b50565b61097f81610843565b811461098a57600080fd5b5056fea26469706673582212204f60955b514ba5f9ea7095429a32d106b43fab68c3c4d34fc8dc8ba7c3483c3964736f6c63430008000033",
  "linkReferences": {},
  "deployedLinkReferences": {}
}